{
  "contracts/BeamVest.sol": {
    "BeamVest": {
      "abi": [
        {
          "inputs": [],
          "stateMutability": "nonpayable",
          "type": "constructor"
        },
        {
          "inputs": [],
          "name": "ActiveLoanExists",
          "type": "error"
        },
        {
          "inputs": [],
          "name": "InsufficientBalance",
          "type": "error"
        },
        {
          "inputs": [],
          "name": "InsufficientCollateral",
          "type": "error"
        },
        {
          "inputs": [],
          "name": "InsufficientLiquidity",
          "type": "error"
        },
        {
          "inputs": [],
          "name": "InsufficientRepayment",
          "type": "error"
        },
        {
          "inputs": [],
          "name": "NoActiveLoan",
          "type": "error"
        },
        {
          "inputs": [],
          "name": "PositionIsHealthy",
          "type": "error"
        },
        {
          "inputs": [],
          "name": "ReentrancyGuardReentrantCall",
          "type": "error"
        },
        {
          "inputs": [],
          "name": "TransferFailed",
          "type": "error"
        },
        {
          "inputs": [],
          "name": "ZeroAmount",
          "type": "error"
        },
        {
          "anonymous": false,
          "inputs": [
            {
              "indexed": true,
              "internalType": "address",
              "name": "user",
              "type": "address"
            },
            {
              "indexed": false,
              "internalType": "uint256",
              "name": "collateral",
              "type": "uint256"
            },
            {
              "indexed": false,
              "internalType": "uint256",
              "name": "amount",
              "type": "uint256"
            }
          ],
          "name": "Borrowed",
          "type": "event"
        },
        {
          "anonymous": false,
          "inputs": [
            {
              "indexed": true,
              "internalType": "address",
              "name": "user",
              "type": "address"
            },
            {
              "indexed": false,
              "internalType": "uint256",
              "name": "amount",
              "type": "uint256"
            }
          ],
          "name": "Deposited",
          "type": "event"
        },
        {
          "anonymous": false,
          "inputs": [
            {
              "indexed": true,
              "internalType": "address",
              "name": "borrower",
              "type": "address"
            },
            {
              "indexed": true,
              "internalType": "address",
              "name": "liquidator",
              "type": "address"
            },
            {
              "indexed": false,
              "internalType": "uint256",
              "name": "payout",
              "type": "uint256"
            }
          ],
          "name": "Liquidated",
          "type": "event"
        },
        {
          "anonymous": false,
          "inputs": [
            {
              "indexed": true,
              "internalType": "address",
              "name": "user",
              "type": "address"
            },
            {
              "indexed": false,
              "internalType": "uint256",
              "name": "amount",
              "type": "uint256"
            }
          ],
          "name": "Repaid",
          "type": "event"
        },
        {
          "anonymous": false,
          "inputs": [
            {
              "indexed": true,
              "internalType": "address",
              "name": "user",
              "type": "address"
            },
            {
              "indexed": false,
              "internalType": "uint256",
              "name": "amount",
              "type": "uint256"
            }
          ],
          "name": "Withdrawn",
          "type": "event"
        },
        {
          "inputs": [],
          "name": "BASE_INTEREST_RATE",
          "outputs": [
            {
              "internalType": "uint256",
              "name": "",
              "type": "uint256"
            }
          ],
          "stateMutability": "view",
          "type": "function"
        },
        {
          "inputs": [],
          "name": "COLLATERAL_RATIO",
          "outputs": [
            {
              "internalType": "uint256",
              "name": "",
              "type": "uint256"
            }
          ],
          "stateMutability": "view",
          "type": "function"
        },
        {
          "inputs": [],
          "name": "LIQUIDATION_BONUS",
          "outputs": [
            {
              "internalType": "uint256",
              "name": "",
              "type": "uint256"
            }
          ],
          "stateMutability": "view",
          "type": "function"
        },
        {
          "inputs": [],
          "name": "LIQUIDATION_RATIO",
          "outputs": [
            {
              "internalType": "uint256",
              "name": "",
              "type": "uint256"
            }
          ],
          "stateMutability": "view",
          "type": "function"
        },
        {
          "inputs": [
            {
              "internalType": "address",
              "name": "borrower",
              "type": "address"
            }
          ],
          "name": "amountOwed",
          "outputs": [
            {
              "internalType": "uint256",
              "name": "",
              "type": "uint256"
            }
          ],
          "stateMutability": "view",
          "type": "function"
        },
        {
          "inputs": [
            {
              "internalType": "uint256",
              "name": "borrowAmount",
              "type": "uint256"
            }
          ],
          "name": "borrow",
          "outputs": [],
          "stateMutability": "payable",
          "type": "function"
        },
        {
          "inputs": [],
          "name": "currentAPY",
          "outputs": [
            {
              "internalType": "uint256",
              "name": "",
              "type": "uint256"
            }
          ],
          "stateMutability": "view",
          "type": "function"
        },
        {
          "inputs": [],
          "name": "deposit",
          "outputs": [],
          "stateMutability": "payable",
          "type": "function"
        },
        {
          "inputs": [
            {
              "internalType": "address",
              "name": "",
              "type": "address"
            }
          ],
          "name": "deposits",
          "outputs": [
            {
              "internalType": "uint256",
              "name": "amount",
              "type": "uint256"
            },
            {
              "internalType": "uint256",
              "name": "depositedAt",
              "type": "uint256"
            }
          ],
          "stateMutability": "view",
          "type": "function"
        },
        {
          "inputs": [
            {
              "internalType": "address",
              "name": "borrower",
              "type": "address"
            }
          ],
          "name": "healthFactor",
          "outputs": [
            {
              "internalType": "uint256",
              "name": "",
              "type": "uint256"
            }
          ],
          "stateMutability": "view",
          "type": "function"
        },
        {
          "inputs": [
            {
              "internalType": "address",
              "name": "borrower",
              "type": "address"
            }
          ],
          "name": "liquidate",
          "outputs": [],
          "stateMutability": "payable",
          "type": "function"
        },
        {
          "inputs": [
            {
              "internalType": "address",
              "name": "",
              "type": "address"
            }
          ],
          "name": "loans",
          "outputs": [
            {
              "internalType": "uint256",
              "name": "collateral",
              "type": "uint256"
            },
            {
              "internalType": "uint256",
              "name": "borrowed",
              "type": "uint256"
            },
            {
              "internalType": "uint256",
              "name": "borrowedAt",
              "type": "uint256"
            }
          ],
          "stateMutability": "view",
          "type": "function"
        },
        {
          "inputs": [],
          "name": "owner",
          "outputs": [
            {
              "internalType": "address",
              "name": "",
              "type": "address"
            }
          ],
          "stateMutability": "view",
          "type": "function"
        },
        {
          "inputs": [],
          "name": "repay",
          "outputs": [],
          "stateMutability": "payable",
          "type": "function"
        },
        {
          "inputs": [],
          "name": "totalBorrowed",
          "outputs": [
            {
              "internalType": "uint256",
              "name": "",
              "type": "uint256"
            }
          ],
          "stateMutability": "view",
          "type": "function"
        },
        {
          "inputs": [],
          "name": "totalDeposits",
          "outputs": [
            {
              "internalType": "uint256",
              "name": "",
              "type": "uint256"
            }
          ],
          "stateMutability": "view",
          "type": "function"
        },
        {
          "inputs": [],
          "name": "utilizationRate",
          "outputs": [
            {
              "internalType": "uint256",
              "name": "",
              "type": "uint256"
            }
          ],
          "stateMutability": "view",
          "type": "function"
        },
        {
          "inputs": [
            {
              "internalType": "uint256",
              "name": "amount",
              "type": "uint256"
            }
          ],
          "name": "withdraw",
          "outputs": [],
          "stateMutability": "nonpayable",
          "type": "function"
        },
        {
          "stateMutability": "payable",
          "type": "receive"
        }
      ],
      "evm": {
        "bytecode": {
          "linkReferences": {},
          "object": "60808060405234604b5760017f9b779b17422d0df92223018b32b4d1fa46e071723d6817e2486d003becc55f0055600080546001600160a01b03191633179055610a6f90816100518239f35b600080fdfe6080604052600436101561001b575b361561001957600080fd5b005b60003560e01c80630d8cb2ff1461079c5780632e1a7d4d146106c05780632f865568146105a95780633574d4c4146105a4578063402d8883146104a35780634c19386c146104855780636ad9f9df146104565780636c321c8a1461043b57806373b4086b146103e65780637d882097146103c85780638da5cb5b1461039f5780639a79d32b14610384578063c4323fea14610368578063c5ebeaec1461022d578063d0e30db014610185578063d9e69a0514610169578063e5cf2297146101325763fc7e286d0361000e573461012d57602036600319011261012d576004356001600160a01b0381169081900361012d5760005260036020526040806000206001815491015482519182526020820152f35b600080fd5b3461012d57602036600319011261012d576004356001600160a01b038116810361012d576101616020916108ed565b604051908152f35b3461012d57600036600319011261012d57602060405160968152f35b600036600319011261012d57610199610961565b341561021c5733600052600360205260406000206101b83482546107b8565b9055336000526003602052426001604060002001556101d9346001546107b8565b6001556040513481527f2da466a7b24304f47e87fa2e1e5a81b9831ce54fec19055ce277ca2f39ba42c460203392a26001600080516020610a1a83398151915255005b631f2a200560e01b60005260046000fd5b602036600319011261012d57600435610244610961565b33600052600460205260016040600020015461035757801561021c576096810281810460960361034157606490043410610330578061028334476107c5565b1061031f57610290610805565b3481526002602082018381526040830190428252336000526004602052604060002093518455516001840155519101556102cc816002546107b8565b6002556102d9813361099d565b6040519034825260208201527feae9cfbc77fdd40ca899f36b608256063b2bc9d8178b0220f7ad513e178d673060403392a26001600080516020610a1a83398151915255005b63bb55fd2760e01b60005260046000fd5b633a23d82560e01b60005260046000fd5b634e487b7160e01b600052601160045260246000fd5b632179f9db60e21b60005260046000fd5b3461012d57600036600319011261012d576020604051607d8152f35b3461012d57600036600319011261012d5760206101616108d4565b3461012d57600036600319011261012d576000546040516001600160a01b039091168152602090f35b3461012d57600036600319011261012d576020600154604051908152f35b3461012d57602036600319011261012d576004356001600160a01b0381169081900361012d57600052600460205260606040600020805490600260018201549101549060405192835260208301526040820152f35b3461012d57600036600319011261012d5760206101616108a5565b3461012d57602036600319011261012d576004356001600160a01b038116810361012d5761016160209161083b565b3461012d57600036600319011261012d576020600254604051908152f35b600036600319011261012d576104b7610961565b3360005260046020526040600020600181015480156105935761050663bbf81e006104ff6104e96002860154426107c5565b6104fa6104f46108d4565b866107d2565b6107d2565b04826107b8565b34106105825761051d6105429254916002546107c5565b600255336000526004602052600060026040822082815582600182015501553361099d565b6040513481527f0516911bcc3a0a7412a44601057c0a0a1ec628bde049a84284bc42886653448860203392a26001600080516020610a1a83398151915255005b630443f54160e21b60005260046000fd5b6301c8bc7760e21b60005260046000fd5b61079c565b602036600319011261012d576004356001600160a01b0381169081900361012d576105d2610961565b80600052600460205260406000209060018201549182156105935754606481028115908281046064148217156103415761060e85607d926107e5565b10156106af5783341061058257600582029082820460051417156103415761064691606461063d9204906107b8565b926002546107c5565b6002558060005260046020526000600260408220828155826001820155015561066f823361099d565b6040519182527fde0aa27286f5cb3a4ed853dc4823ead62d63e92cdf13de09d6aece56970721a460203393a36001600080516020610a1a83398151915255005b63202881bd60e11b60005260046000fd5b3461012d57602036600319011261012d576004356106dc610961565b33600052600360205260406000209081549080821061078b5761071f63bbf81e006104ff61070e6001870154426107c5565b6104fa6107196108d4565b876107d2565b9283471061031f576107348261073e946107c5565b90556001546107c5565b60015561074b813361099d565b6040519081527f7084f5476618d8e60b11ef0d7d3f06914655adb8793e28ff7f018d4c76d505d560203392a26001600080516020610a1a83398151915255005b631e9acf1760e31b60005260046000fd5b3461012d57600036600319011261012d57602060405160058152f35b9190820180921161034157565b9190820391821161034157565b8181029291811591840414171561034157565b81156107ef570490565b634e487b7160e01b600052601260045260246000fd5b604051906060820182811067ffffffffffffffff82111761082557604052565b634e487b7160e01b600052604160045260246000fd5b6001600160a01b0316600090815260046020526040902061085a610805565b81549081815260018301549060406002602083019584875201549101521561089d576064810290808204606414901517156103415761089a9151906107e5565b90565b50506103e790565b60015480156108ce57600254906064820291808304606414901517156103415761089a916107e5565b50600090565b600a6108de6108a5565b04600501806005116103415790565b6001600160a01b03166000908152600460205260409081902061090e610805565b81548152600260018301549283602084015201549283910152801561095a5763bbf81e0061095361094261089a94426107c5565b6104fa61094d6108d4565b856107d2565b04906107b8565b5050600090565b6002600080516020610a1a833981519152541461098c576002600080516020610a1a83398151915255565b633ee5aeb560e01b60005260046000fd5b6000918291829182916001600160a01b03165af13d15610a14573d67ffffffffffffffff81116108255760405190601f8101601f19908116603f0116820167ffffffffffffffff811183821017610825576040528152600060203d92013e5b15610a0357565b6312171d8360e31b60005260046000fd5b6109fc56fe9b779b17422d0df92223018b32b4d1fa46e071723d6817e2486d003becc55f00a26469706673582212209faefa06bd153566321d2908955870da85c1e0168982a5e8bc17bfe0b238ead064736f6c634300081c0033",
          "opcodes": "PUSH1 0x80 DUP1 PUSH1 0x40 MSTORE CALLVALUE PUSH1 0x4B JUMPI PUSH1 0x1 PUSH32 0x9B779B17422D0DF92223018B32B4D1FA46E071723D6817E2486D003BECC55F00 SSTORE PUSH1 0x0 DUP1 SLOAD PUSH1 0x1 PUSH1 0x1 PUSH1 0xA0 SHL SUB NOT AND CALLER OR SWAP1 SSTORE PUSH2 0xA6F SWAP1 DUP2 PUSH2 0x51 DUP3 CODECOPY RETURN JUMPDEST PUSH1 0x0 DUP1 REVERT INVALID PUSH1 0x80 PUSH1 0x40 MSTORE PUSH1 0x4 CALLDATASIZE LT ISZERO PUSH2 0x1B JUMPI JUMPDEST CALLDATASIZE ISZERO PUSH2 0x19 JUMPI PUSH1 0x0 DUP1 REVERT JUMPDEST STOP JUMPDEST PUSH1 0x0 CALLDATALOAD PUSH1 0xE0 SHR DUP1 PUSH4 0xD8CB2FF EQ PUSH2 0x79C JUMPI DUP1 PUSH4 0x2E1A7D4D EQ PUSH2 0x6C0 JUMPI DUP1 PUSH4 0x2F865568 EQ PUSH2 0x5A9 JUMPI DUP1 PUSH4 0x3574D4C4 EQ PUSH2 0x5A4 JUMPI DUP1 PUSH4 0x402D8883 EQ PUSH2 0x4A3 JUMPI DUP1 PUSH4 0x4C19386C EQ PUSH2 0x485 JUMPI DUP1 PUSH4 0x6AD9F9DF EQ PUSH2 0x456 JUMPI DUP1 PUSH4 0x6C321C8A EQ PUSH2 0x43B JUMPI DUP1 PUSH4 0x73B4086B EQ PUSH2 0x3E6 JUMPI DUP1 PUSH4 0x7D882097 EQ PUSH2 0x3C8 JUMPI DUP1 PUSH4 0x8DA5CB5B EQ PUSH2 0x39F JUMPI DUP1 PUSH4 0x9A79D32B EQ PUSH2 0x384 JUMPI DUP1 PUSH4 0xC4323FEA EQ PUSH2 0x368 JUMPI DUP1 PUSH4 0xC5EBEAEC EQ PUSH2 0x22D JUMPI DUP1 PUSH4 0xD0E30DB0 EQ PUSH2 0x185 JUMPI DUP1 PUSH4 0xD9E69A05 EQ PUSH2 0x169 JUMPI DUP1 PUSH4 0xE5CF2297 EQ PUSH2 0x132 JUMPI PUSH4 0xFC7E286D SUB PUSH2 0xE JUMPI CALLVALUE PUSH2 0x12D JUMPI PUSH1 0x20 CALLDATASIZE PUSH1 0x3 NOT ADD SLT PUSH2 0x12D JUMPI PUSH1 0x4 CALLDATALOAD PUSH1 0x1 PUSH1 0x1 PUSH1 0xA0 SHL SUB DUP2 AND SWAP1 DUP2 SWAP1 SUB PUSH2 0x12D JUMPI PUSH1 0x0 MSTORE PUSH1 0x3 PUSH1 0x20 MSTORE PUSH1 0x40 DUP1 PUSH1 0x0 KECCAK256 PUSH1 0x1 DUP2 SLOAD SWAP2 ADD SLOAD DUP3 MLOAD SWAP2 DUP3 MSTORE PUSH1 0x20 DUP3 ADD MSTORE RETURN JUMPDEST PUSH1 0x0 DUP1 REVERT JUMPDEST CALLVALUE PUSH2 0x12D JUMPI PUSH1 0x20 CALLDATASIZE PUSH1 0x3 NOT ADD SLT PUSH2 0x12D JUMPI PUSH1 0x4 CALLDATALOAD PUSH1 0x1 PUSH1 0x1 PUSH1 0xA0 SHL SUB DUP2 AND DUP2 SUB PUSH2 0x12D JUMPI PUSH2 0x161 PUSH1 0x20 SWAP2 PUSH2 0x8ED JUMP JUMPDEST PUSH1 0x40 MLOAD SWAP1 DUP2 MSTORE RETURN JUMPDEST CALLVALUE PUSH2 0x12D JUMPI PUSH1 0x0 CALLDATASIZE PUSH1 0x3 NOT ADD SLT PUSH2 0x12D JUMPI PUSH1 0x20 PUSH1 0x40 MLOAD PUSH1 0x96 DUP2 MSTORE RETURN JUMPDEST PUSH1 0x0 CALLDATASIZE PUSH1 0x3 NOT ADD SLT PUSH2 0x12D JUMPI PUSH2 0x199 PUSH2 0x961 JUMP JUMPDEST CALLVALUE ISZERO PUSH2 0x21C JUMPI CALLER PUSH1 0x0 MSTORE PUSH1 0x3 PUSH1 0x20 MSTORE PUSH1 0x40 PUSH1 0x0 KECCAK256 PUSH2 0x1B8 CALLVALUE DUP3 SLOAD PUSH2 0x7B8 JUMP JUMPDEST SWAP1 SSTORE CALLER PUSH1 0x0 MSTORE PUSH1 0x3 PUSH1 0x20 MSTORE TIMESTAMP PUSH1 0x1 PUSH1 0x40 PUSH1 0x0 KECCAK256 ADD SSTORE PUSH2 0x1D9 CALLVALUE PUSH1 0x1 SLOAD PUSH2 0x7B8 JUMP JUMPDEST PUSH1 0x1 SSTORE PUSH1 0x40 MLOAD CALLVALUE DUP2 MSTORE PUSH32 0x2DA466A7B24304F47E87FA2E1E5A81B9831CE54FEC19055CE277CA2F39BA42C4 PUSH1 0x20 CALLER SWAP3 LOG2 PUSH1 0x1 PUSH1 0x0 DUP1 MLOAD PUSH1 0x20 PUSH2 0xA1A DUP4 CODECOPY DUP2 MLOAD SWAP2 MSTORE SSTORE STOP JUMPDEST PUSH4 0x1F2A2005 PUSH1 0xE0 SHL PUSH1 0x0 MSTORE PUSH1 0x4 PUSH1 0x0 REVERT JUMPDEST PUSH1 0x20 CALLDATASIZE PUSH1 0x3 NOT ADD SLT PUSH2 0x12D JUMPI PUSH1 0x4 CALLDATALOAD PUSH2 0x244 PUSH2 0x961 JUMP JUMPDEST CALLER PUSH1 0x0 MSTORE PUSH1 0x4 PUSH1 0x20 MSTORE PUSH1 0x1 PUSH1 0x40 PUSH1 0x0 KECCAK256 ADD SLOAD PUSH2 0x357 JUMPI DUP1 ISZERO PUSH2 0x21C JUMPI PUSH1 0x96 DUP2 MUL DUP2 DUP2 DIV PUSH1 0x96 SUB PUSH2 0x341 JUMPI PUSH1 0x64 SWAP1 DIV CALLVALUE LT PUSH2 0x330 JUMPI DUP1 PUSH2 0x283 CALLVALUE SELFBALANCE PUSH2 0x7C5 JUMP JUMPDEST LT PUSH2 0x31F JUMPI PUSH2 0x290 PUSH2 0x805 JUMP JUMPDEST CALLVALUE DUP2 MSTORE PUSH1 0x2 PUSH1 0x20 DUP3 ADD DUP4 DUP2 MSTORE PUSH1 0x40 DUP4 ADD SWAP1 TIMESTAMP DUP3 MSTORE CALLER PUSH1 0x0 MSTORE PUSH1 0x4 PUSH1 0x20 MSTORE PUSH1 0x40 PUSH1 0x0 KECCAK256 SWAP4 MLOAD DUP5 SSTORE MLOAD PUSH1 0x1 DUP5 ADD SSTORE MLOAD SWAP2 ADD SSTORE PUSH2 0x2CC DUP2 PUSH1 0x2 SLOAD PUSH2 0x7B8 JUMP JUMPDEST PUSH1 0x2 SSTORE PUSH2 0x2D9 DUP2 CALLER PUSH2 0x99D JUMP JUMPDEST PUSH1 0x40 MLOAD SWAP1 CALLVALUE DUP3 MSTORE PUSH1 0x20 DUP3 ADD MSTORE PUSH32 0xEAE9CFBC77FDD40CA899F36B608256063B2BC9D8178B0220F7AD513E178D6730 PUSH1 0x40 CALLER SWAP3 LOG2 PUSH1 0x1 PUSH1 0x0 DUP1 MLOAD PUSH1 0x20 PUSH2 0xA1A DUP4 CODECOPY DUP2 MLOAD SWAP2 MSTORE SSTORE STOP JUMPDEST PUSH4 0xBB55FD27 PUSH1 0xE0 SHL PUSH1 0x0 MSTORE PUSH1 0x4 PUSH1 0x0 REVERT JUMPDEST PUSH4 0x3A23D825 PUSH1 0xE0 SHL PUSH1 0x0 MSTORE PUSH1 0x4 PUSH1 0x0 REVERT JUMPDEST PUSH4 0x4E487B71 PUSH1 0xE0 SHL PUSH1 0x0 MSTORE PUSH1 0x11 PUSH1 0x4 MSTORE PUSH1 0x24 PUSH1 0x0 REVERT JUMPDEST PUSH4 0x2179F9DB PUSH1 0xE2 SHL PUSH1 0x0 MSTORE PUSH1 0x4 PUSH1 0x0 REVERT JUMPDEST CALLVALUE PUSH2 0x12D JUMPI PUSH1 0x0 CALLDATASIZE PUSH1 0x3 NOT ADD SLT PUSH2 0x12D JUMPI PUSH1 0x20 PUSH1 0x40 MLOAD PUSH1 0x7D DUP2 MSTORE RETURN JUMPDEST CALLVALUE PUSH2 0x12D JUMPI PUSH1 0x0 CALLDATASIZE PUSH1 0x3 NOT ADD SLT PUSH2 0x12D JUMPI PUSH1 0x20 PUSH2 0x161 PUSH2 0x8D4 JUMP JUMPDEST CALLVALUE PUSH2 0x12D JUMPI PUSH1 0x0 CALLDATASIZE PUSH1 0x3 NOT ADD SLT PUSH2 0x12D JUMPI PUSH1 0x0 SLOAD PUSH1 0x40 MLOAD PUSH1 0x1 PUSH1 0x1 PUSH1 0xA0 SHL SUB SWAP1 SWAP2 AND DUP2 MSTORE PUSH1 0x20 SWAP1 RETURN JUMPDEST CALLVALUE PUSH2 0x12D JUMPI PUSH1 0x0 CALLDATASIZE PUSH1 0x3 NOT ADD SLT PUSH2 0x12D JUMPI PUSH1 0x20 PUSH1 0x1 SLOAD PUSH1 0x40 MLOAD SWAP1 DUP2 MSTORE RETURN JUMPDEST CALLVALUE PUSH2 0x12D JUMPI PUSH1 0x20 CALLDATASIZE PUSH1 0x3 NOT ADD SLT PUSH2 0x12D JUMPI PUSH1 0x4 CALLDATALOAD PUSH1 0x1 PUSH1 0x1 PUSH1 0xA0 SHL SUB DUP2 AND SWAP1 DUP2 SWAP1 SUB PUSH2 0x12D JUMPI PUSH1 0x0 MSTORE PUSH1 0x4 PUSH1 0x20 MSTORE PUSH1 0x60 PUSH1 0x40 PUSH1 0x0 KECCAK256 DUP1 SLOAD SWAP1 PUSH1 0x2 PUSH1 0x1 DUP3 ADD SLOAD SWAP2 ADD SLOAD SWAP1 PUSH1 0x40 MLOAD SWAP3 DUP4 MSTORE PUSH1 0x20 DUP4 ADD MSTORE PUSH1 0x40 DUP3 ADD MSTORE RETURN JUMPDEST CALLVALUE PUSH2 0x12D JUMPI PUSH1 0x0 CALLDATASIZE PUSH1 0x3 NOT ADD SLT PUSH2 0x12D JUMPI PUSH1 0x20 PUSH2 0x161 PUSH2 0x8A5 JUMP JUMPDEST CALLVALUE PUSH2 0x12D JUMPI PUSH1 0x20 CALLDATASIZE PUSH1 0x3 NOT ADD SLT PUSH2 0x12D JUMPI PUSH1 0x4 CALLDATALOAD PUSH1 0x1 PUSH1 0x1 PUSH1 0xA0 SHL SUB DUP2 AND DUP2 SUB PUSH2 0x12D JUMPI PUSH2 0x161 PUSH1 0x20 SWAP2 PUSH2 0x83B JUMP JUMPDEST CALLVALUE PUSH2 0x12D JUMPI PUSH1 0x0 CALLDATASIZE PUSH1 0x3 NOT ADD SLT PUSH2 0x12D JUMPI PUSH1 0x20 PUSH1 0x2 SLOAD PUSH1 0x40 MLOAD SWAP1 DUP2 MSTORE RETURN JUMPDEST PUSH1 0x0 CALLDATASIZE PUSH1 0x3 NOT ADD SLT PUSH2 0x12D JUMPI PUSH2 0x4B7 PUSH2 0x961 JUMP JUMPDEST CALLER PUSH1 0x0 MSTORE PUSH1 0x4 PUSH1 0x20 MSTORE PUSH1 0x40 PUSH1 0x0 KECCAK256 PUSH1 0x1 DUP2 ADD SLOAD DUP1 ISZERO PUSH2 0x593 JUMPI PUSH2 0x506 PUSH4 0xBBF81E00 PUSH2 0x4FF PUSH2 0x4E9 PUSH1 0x2 DUP7 ADD SLOAD TIMESTAMP PUSH2 0x7C5 JUMP JUMPDEST PUSH2 0x4FA PUSH2 0x4F4 PUSH2 0x8D4 JUMP JUMPDEST DUP7 PUSH2 0x7D2 JUMP JUMPDEST PUSH2 0x7D2 JUMP JUMPDEST DIV DUP3 PUSH2 0x7B8 JUMP JUMPDEST CALLVALUE LT PUSH2 0x582 JUMPI PUSH2 0x51D PUSH2 0x542 SWAP3 SLOAD SWAP2 PUSH1 0x2 SLOAD PUSH2 0x7C5 JUMP JUMPDEST PUSH1 0x2 SSTORE CALLER PUSH1 0x0 MSTORE PUSH1 0x4 PUSH1 0x20 MSTORE PUSH1 0x0 PUSH1 0x2 PUSH1 0x40 DUP3 KECCAK256 DUP3 DUP2 SSTORE DUP3 PUSH1 0x1 DUP3 ADD SSTORE ADD SSTORE CALLER PUSH2 0x99D JUMP JUMPDEST PUSH1 0x40 MLOAD CALLVALUE DUP2 MSTORE PUSH32 0x516911BCC3A0A7412A44601057C0A0A1EC628BDE049A84284BC428866534488 PUSH1 0x20 CALLER SWAP3 LOG2 PUSH1 0x1 PUSH1 0x0 DUP1 MLOAD PUSH1 0x20 PUSH2 0xA1A DUP4 CODECOPY DUP2 MLOAD SWAP2 MSTORE SSTORE STOP JUMPDEST PUSH4 0x443F541 PUSH1 0xE2 SHL PUSH1 0x0 MSTORE PUSH1 0x4 PUSH1 0x0 REVERT JUMPDEST PUSH4 0x1C8BC77 PUSH1 0xE2 SHL PUSH1 0x0 MSTORE PUSH1 0x4 PUSH1 0x0 REVERT JUMPDEST PUSH2 0x79C JUMP JUMPDEST PUSH1 0x20 CALLDATASIZE PUSH1 0x3 NOT ADD SLT PUSH2 0x12D JUMPI PUSH1 0x4 CALLDATALOAD PUSH1 0x1 PUSH1 0x1 PUSH1 0xA0 SHL SUB DUP2 AND SWAP1 DUP2 SWAP1 SUB PUSH2 0x12D JUMPI PUSH2 0x5D2 PUSH2 0x961 JUMP JUMPDEST DUP1 PUSH1 0x0 MSTORE PUSH1 0x4 PUSH1 0x20 MSTORE PUSH1 0x40 PUSH1 0x0 KECCAK256 SWAP1 PUSH1 0x1 DUP3 ADD SLOAD SWAP2 DUP3 ISZERO PUSH2 0x593 JUMPI SLOAD PUSH1 0x64 DUP2 MUL DUP2 ISZERO SWAP1 DUP3 DUP2 DIV PUSH1 0x64 EQ DUP3 OR ISZERO PUSH2 0x341 JUMPI PUSH2 0x60E DUP6 PUSH1 0x7D SWAP3 PUSH2 0x7E5 JUMP JUMPDEST LT ISZERO PUSH2 0x6AF JUMPI DUP4 CALLVALUE LT PUSH2 0x582 JUMPI PUSH1 0x5 DUP3 MUL SWAP1 DUP3 DUP3 DIV PUSH1 0x5 EQ OR ISZERO PUSH2 0x341 JUMPI PUSH2 0x646 SWAP2 PUSH1 0x64 PUSH2 0x63D SWAP3 DIV SWAP1 PUSH2 0x7B8 JUMP JUMPDEST SWAP3 PUSH1 0x2 SLOAD PUSH2 0x7C5 JUMP JUMPDEST PUSH1 0x2 SSTORE DUP1 PUSH1 0x0 MSTORE PUSH1 0x4 PUSH1 0x20 MSTORE PUSH1 0x0 PUSH1 0x2 PUSH1 0x40 DUP3 KECCAK256 DUP3 DUP2 SSTORE DUP3 PUSH1 0x1 DUP3 ADD SSTORE ADD SSTORE PUSH2 0x66F DUP3 CALLER PUSH2 0x99D JUMP JUMPDEST PUSH1 0x40 MLOAD SWAP2 DUP3 MSTORE PUSH32 0xDE0AA27286F5CB3A4ED853DC4823EAD62D63E92CDF13DE09D6AECE56970721A4 PUSH1 0x20 CALLER SWAP4 LOG3 PUSH1 0x1 PUSH1 0x0 DUP1 MLOAD PUSH1 0x20 PUSH2 0xA1A DUP4 CODECOPY DUP2 MLOAD SWAP2 MSTORE SSTORE STOP JUMPDEST PUSH4 0x202881BD PUSH1 0xE1 SHL PUSH1 0x0 MSTORE PUSH1 0x4 PUSH1 0x0 REVERT JUMPDEST CALLVALUE PUSH2 0x12D JUMPI PUSH1 0x20 CALLDATASIZE PUSH1 0x3 NOT ADD SLT PUSH2 0x12D JUMPI PUSH1 0x4 CALLDATALOAD PUSH2 0x6DC PUSH2 0x961 JUMP JUMPDEST CALLER PUSH1 0x0 MSTORE PUSH1 0x3 PUSH1 0x20 MSTORE PUSH1 0x40 PUSH1 0x0 KECCAK256 SWAP1 DUP2 SLOAD SWAP1 DUP1 DUP3 LT PUSH2 0x78B JUMPI PUSH2 0x71F PUSH4 0xBBF81E00 PUSH2 0x4FF PUSH2 0x70E PUSH1 0x1 DUP8 ADD SLOAD TIMESTAMP PUSH2 0x7C5 JUMP JUMPDEST PUSH2 0x4FA PUSH2 0x719 PUSH2 0x8D4 JUMP JUMPDEST DUP8 PUSH2 0x7D2 JUMP JUMPDEST SWAP3 DUP4 SELFBALANCE LT PUSH2 0x31F JUMPI PUSH2 0x734 DUP3 PUSH2 0x73E SWAP5 PUSH2 0x7C5 JUMP JUMPDEST SWAP1 SSTORE PUSH1 0x1 SLOAD PUSH2 0x7C5 JUMP JUMPDEST PUSH1 0x1 SSTORE PUSH2 0x74B DUP2 CALLER PUSH2 0x99D JUMP JUMPDEST PUSH1 0x40 MLOAD SWAP1 DUP2 MSTORE PUSH32 0x7084F5476618D8E60B11EF0D7D3F06914655ADB8793E28FF7F018D4C76D505D5 PUSH1 0x20 CALLER SWAP3 LOG2 PUSH1 0x1 PUSH1 0x0 DUP1 MLOAD PUSH1 0x20 PUSH2 0xA1A DUP4 CODECOPY DUP2 MLOAD SWAP2 MSTORE SSTORE STOP JUMPDEST PUSH4 0x1E9ACF17 PUSH1 0xE3 SHL PUSH1 0x0 MSTORE PUSH1 0x4 PUSH1 0x0 REVERT JUMPDEST CALLVALUE PUSH2 0x12D JUMPI PUSH1 0x0 CALLDATASIZE PUSH1 0x3 NOT ADD SLT PUSH2 0x12D JUMPI PUSH1 0x20 PUSH1 0x40 MLOAD PUSH1 0x5 DUP2 MSTORE RETURN JUMPDEST SWAP2 SWAP1 DUP3 ADD DUP1 SWAP3 GT PUSH2 0x341 JUMPI JUMP JUMPDEST SWAP2 SWAP1 DUP3 SUB SWAP2 DUP3 GT PUSH2 0x341 JUMPI JUMP JUMPDEST DUP2 DUP2 MUL SWAP3 SWAP2 DUP2 ISZERO SWAP2 DUP5 DIV EQ OR ISZERO PUSH2 0x341 JUMPI JUMP JUMPDEST DUP2 ISZERO PUSH2 0x7EF JUMPI DIV SWAP1 JUMP JUMPDEST PUSH4 0x4E487B71 PUSH1 0xE0 SHL PUSH1 0x0 MSTORE PUSH1 0x12 PUSH1 0x4 MSTORE PUSH1 0x24 PUSH1 0x0 REVERT JUMPDEST PUSH1 0x40 MLOAD SWAP1 PUSH1 0x60 DUP3 ADD DUP3 DUP2 LT PUSH8 0xFFFFFFFFFFFFFFFF DUP3 GT OR PUSH2 0x825 JUMPI PUSH1 0x40 MSTORE JUMP JUMPDEST PUSH4 0x4E487B71 PUSH1 0xE0 SHL PUSH1 0x0 MSTORE PUSH1 0x41 PUSH1 0x4 MSTORE PUSH1 0x24 PUSH1 0x0 REVERT JUMPDEST PUSH1 0x1 PUSH1 0x1 PUSH1 0xA0 SHL SUB AND PUSH1 0x0 SWAP1 DUP2 MSTORE PUSH1 0x4 PUSH1 0x20 MSTORE PUSH1 0x40 SWAP1 KECCAK256 PUSH2 0x85A PUSH2 0x805 JUMP JUMPDEST DUP2 SLOAD SWAP1 DUP2 DUP2 MSTORE PUSH1 0x1 DUP4 ADD SLOAD SWAP1 PUSH1 0x40 PUSH1 0x2 PUSH1 0x20 DUP4 ADD SWAP6 DUP5 DUP8 MSTORE ADD SLOAD SWAP2 ADD MSTORE ISZERO PUSH2 0x89D JUMPI PUSH1 0x64 DUP2 MUL SWAP1 DUP1 DUP3 DIV PUSH1 0x64 EQ SWAP1 ISZERO OR ISZERO PUSH2 0x341 JUMPI PUSH2 0x89A SWAP2 MLOAD SWAP1 PUSH2 0x7E5 JUMP JUMPDEST SWAP1 JUMP JUMPDEST POP POP PUSH2 0x3E7 SWAP1 JUMP JUMPDEST PUSH1 0x1 SLOAD DUP1 ISZERO PUSH2 0x8CE JUMPI PUSH1 0x2 SLOAD SWAP1 PUSH1 0x64 DUP3 MUL SWAP2 DUP1 DUP4 DIV PUSH1 0x64 EQ SWAP1 ISZERO OR ISZERO PUSH2 0x341 JUMPI PUSH2 0x89A SWAP2 PUSH2 0x7E5 JUMP JUMPDEST POP PUSH1 0x0 SWAP1 JUMP JUMPDEST PUSH1 0xA PUSH2 0x8DE PUSH2 0x8A5 JUMP JUMPDEST DIV PUSH1 0x5 ADD DUP1 PUSH1 0x5 GT PUSH2 0x341 JUMPI SWAP1 JUMP JUMPDEST PUSH1 0x1 PUSH1 0x1 PUSH1 0xA0 SHL SUB AND PUSH1 0x0 SWAP1 DUP2 MSTORE PUSH1 0x4 PUSH1 0x20 MSTORE PUSH1 0x40 SWAP1 DUP2 SWAP1 KECCAK256 PUSH2 0x90E PUSH2 0x805 JUMP JUMPDEST DUP2 SLOAD DUP2 MSTORE PUSH1 0x2 PUSH1 0x1 DUP4 ADD SLOAD SWAP3 DUP4 PUSH1 0x20 DUP5 ADD MSTORE ADD SLOAD SWAP3 DUP4 SWAP2 ADD MSTORE DUP1 ISZERO PUSH2 0x95A JUMPI PUSH4 0xBBF81E00 PUSH2 0x953 PUSH2 0x942 PUSH2 0x89A SWAP5 TIMESTAMP PUSH2 0x7C5 JUMP JUMPDEST PUSH2 0x4FA PUSH2 0x94D PUSH2 0x8D4 JUMP JUMPDEST DUP6 PUSH2 0x7D2 JUMP JUMPDEST DIV SWAP1 PUSH2 0x7B8 JUMP JUMPDEST POP POP PUSH1 0x0 SWAP1 JUMP JUMPDEST PUSH1 0x2 PUSH1 0x0 DUP1 MLOAD PUSH1 0x20 PUSH2 0xA1A DUP4 CODECOPY DUP2 MLOAD SWAP2 MSTORE SLOAD EQ PUSH2 0x98C JUMPI PUSH1 0x2 PUSH1 0x0 DUP1 MLOAD PUSH1 0x20 PUSH2 0xA1A DUP4 CODECOPY DUP2 MLOAD SWAP2 MSTORE SSTORE JUMP JUMPDEST PUSH4 0x3EE5AEB5 PUSH1 0xE0 SHL PUSH1 0x0 MSTORE PUSH1 0x4 PUSH1 0x0 REVERT JUMPDEST PUSH1 0x0 SWAP2 DUP3 SWAP2 DUP3 SWAP2 DUP3 SWAP2 PUSH1 0x1 PUSH1 0x1 PUSH1 0xA0 SHL SUB AND GAS CALL RETURNDATASIZE ISZERO PUSH2 0xA14 JUMPI RETURNDATASIZE PUSH8 0xFFFFFFFFFFFFFFFF DUP2 GT PUSH2 0x825 JUMPI PUSH1 0x40 MLOAD SWAP1 PUSH1 0x1F DUP2 ADD PUSH1 0x1F NOT SWAP1 DUP2 AND PUSH1 0x3F ADD AND DUP3 ADD PUSH8 0xFFFFFFFFFFFFFFFF DUP2 GT DUP4 DUP3 LT OR PUSH2 0x825 JUMPI PUSH1 0x40 MSTORE DUP2 MSTORE PUSH1 0x0 PUSH1 0x20 RETURNDATASIZE SWAP3 ADD RETURNDATACOPY JUMPDEST ISZERO PUSH2 0xA03 JUMPI JUMP JUMPDEST PUSH4 0x12171D83 PUSH1 0xE3 SHL PUSH1 0x0 MSTORE PUSH1 0x4 PUSH1 0x0 REVERT JUMPDEST PUSH2 0x9FC JUMP INVALID SWAP12 PUSH24 0x9B17422D0DF92223018B32B4D1FA46E071723D6817E2486D STOP EXTCODESIZE 0xEC 0xC5 PUSH0 STOP LOG2 PUSH5 0x6970667358 0x22 SLT KECCAK256 SWAP16 0xAE STATICCALL MOD 0xBD ISZERO CALLDATALOAD PUSH7 0x321D2908955870 0xDA DUP6 0xC1 0xE0 AND DUP10 DUP3 0xA5 0xE8 0xBC OR 0xBF 0xE0 0xB2 CODESIZE 0xEA 0xD0 PUSH5 0x736F6C6343 STOP ADDMOD SHR STOP CALLER "
        },
        "methodIdentifiers": {
          "BASE_INTEREST_RATE()": "0d8cb2ff",
          "COLLATERAL_RATIO()": "d9e69a05",
          "LIQUIDATION_BONUS()": "3574d4c4",
          "LIQUIDATION_RATIO()": "c4323fea",
          "amountOwed(address)": "e5cf2297",
          "borrow(uint256)": "c5ebeaec",
          "currentAPY()": "9a79d32b",
          "deposit()": "d0e30db0",
          "deposits(address)": "fc7e286d",
          "healthFactor(address)": "6ad9f9df",
          "liquidate(address)": "2f865568",
          "loans(address)": "73b4086b",
          "owner()": "8da5cb5b",
          "repay()": "402d8883",
          "totalBorrowed()": "4c19386c",
          "totalDeposits()": "7d882097",
          "utilizationRate()": "6c321c8a",
          "withdraw(uint256)": "2e1a7d4d"
        }
      },
      "storageLayout": {
        "storage": [
          {
            "astId": 244,
            "contract": "contracts/BeamVest.sol:BeamVest",
            "label": "owner",
            "offset": 0,
            "slot": "0",
            "type": "t_address"
          },
          {
            "astId": 246,
            "contract": "contracts/BeamVest.sol:BeamVest",
            "label": "totalDeposits",
            "offset": 0,
            "slot": "1",
            "type": "t_uint256"
          },
          {
            "astId": 248,
            "contract": "contracts/BeamVest.sol:BeamVest",
            "label": "totalBorrowed",
            "offset": 0,
            "slot": "2",
            "type": "t_uint256"
          },
          {
            "astId": 277,
            "contract": "contracts/BeamVest.sol:BeamVest",
            "label": "deposits",
            "offset": 0,
            "slot": "3",
            "type": "t_mapping(t_address,t_struct(Deposit)265_storage)"
          },
          {
            "astId": 282,
            "contract": "contracts/BeamVest.sol:BeamVest",
            "label": "loans",
            "offset": 0,
            "slot": "4",
            "type": "t_mapping(t_address,t_struct(Loan)272_storage)"
          }
        ],
        "types": {
          "t_address": {
            "encoding": "inplace",
            "label": "address",
            "numberOfBytes": "20"
          },
          "t_mapping(t_address,t_struct(Deposit)265_storage)": {
            "encoding": "mapping",
            "key": "t_address",
            "label": "mapping(address => struct BeamVest.Deposit)",
            "numberOfBytes": "32",
            "value": "t_struct(Deposit)265_storage"
          },
          "t_mapping(t_address,t_struct(Loan)272_storage)": {
            "encoding": "mapping",
            "key": "t_address",
            "label": "mapping(address => struct BeamVest.Loan)",
            "numberOfBytes": "32",
            "value": "t_struct(Loan)272_storage"
          },
          "t_struct(Deposit)265_storage": {
            "encoding": "inplace",
            "label": "struct BeamVest.Deposit",
            "members": [
              {
                "astId": 262,
                "contract": "contracts/BeamVest.sol:BeamVest",
                "label": "amount",
                "offset": 0,
                "slot": "0",
                "type": "t_uint256"
              },
              {
                "astId": 264,
                "contract": "contracts/BeamVest.sol:BeamVest",
                "label": "depositedAt",
                "offset": 0,
                "slot": "1",
                "type": "t_uint256"
              }
            ],
            "numberOfBytes": "64"
          },
          "t_struct(Loan)272_storage": {
            "encoding": "inplace",
            "label": "struct BeamVest.Loan",
            "members": [
              {
                "astId": 267,
                "contract": "contracts/BeamVest.sol:BeamVest",
                "label": "collateral",
                "offset": 0,
                "slot": "0",
                "type": "t_uint256"
              },
              {
                "astId": 269,
                "contract": "contracts/BeamVest.sol:BeamVest",
                "label": "borrowed",
                "offset": 0,
                "slot": "1",
                "type": "t_uint256"
              },
              {
                "astId": 271,
                "contract": "contracts/BeamVest.sol:BeamVest",
                "label": "borrowedAt",
                "offset": 0,
                "slot": "2",
                "type": "t_uint256"
              }
            ],
            "numberOfBytes": "96"
          },
          "t_uint256": {
            "encoding": "inplace",
            "label": "uint256",
            "numberOfBytes": "32"
          }
        }
      }
    }
  }
}